:020000040800F2
:10000000504500204901000809200008391B00085C
:1000100005200008D50B0008BB42000800000000C6
:100020000000000000000000000000009134000803
:10003000DD16000800000000FF200008BD3A00089F
:100040006301000863010008630100086301000800
:1000500063010008630100086301000863010008F0
:1000600063010008630100086301000863010008E0
:1000700063010008630100086301000863010008D0
:1000800063010008630100086301000863010008C0
:1000900063010008630100086301000863010008B0
:1000A00063010008630100086301000863010008A0
:1000B000253B0008ED3B00086301000863010008D0
:1000C0006301000863010008630100086301000880
:1000D0006301000821400008630100086301000873
:1000E0006301000863010008630100086301000860
:1000F0006301000863010008630100086301000850
:100100006301000863010008093C0008630100085E
:10011000630100086301000863010008630100082F
:10012000630100086301000863010008630100081F
:10013000DFF810D000F02CFC00480047894500088B
:10014000AFF300805045002006488047064800472E
:10015000FEE7FEE7FEE7FEE7FEE7FEE7FEE7FEE777
:10016000FEE7FEE7C53A000831010008F0B480EA76
:100170000102D40F4200B2EB410F02D20246084600
:1001800011464A0042D0C30DDDB2C1F3C752AD1AC9
:10019000202D35DAC1F3160141F4000204B15242B8
:1001A000C5F1200602FA06F12A411044B3EBD05FF4
:1001B00023D0C4B1012DA0EBC35009DCF0BC4FF03B
:1001C000004202EAC352DBB200F5000000F054BB6B
:1001D000400000F1807000EBC350A0F1807040EA55
:1001E000D170490009E0490841EAC071A0EBC35051
:1001F00000F50000400800EBC350F0BC00F033BB3A
:100200006142012202EB4101001BF6E7F0BC70479E
:1002100081F00041AAE780F00040A7E780EA0102F0
:1002200010B502F00043400022D04A001FD0010E5A
:1002300001EB1261C0F35600C2F3560240F4000015
:1002400042F40002A0FB022000047F39140400D015
:10025000401C50EA124001D44000491EC2B20C06B4
:1002600004EBD010401C4008802A02D003E000209C
:1002700010BD20F00100002900DA0020184310BD55
:1002800030B480EA010202F0004530F0004221F073
:10029000004013D090B1C30DD40DC2F31601C0F3CA
:1002A0001600E41A41F4000140F400027D3491424A
:1002B00001D3641C00E04900002C02DA30BC0020AD
:1002C00070474FF400000023914201D3891A034381
:1002D00040084FEA4101F7D151B1914202D14FF0AC
:1002E000004105E002D24FF0010101E06FF0010191
:1002F00003EBC450284430BC00F0B5BA2DE9FE4FE2
:10030000804681EA0300C00F0C46009021F00041B6
:1003100023F00045B8EB0200A94105D24046214632
:1003200090461C460B46024623F00040104347D03F
:10033000270DC7F30A00C3F30A510290401A019037
:1003400040286BDAC3F3130040F4801B00989246F8
:1003500020B10023D2EB030A63EB0B0B0198594643
:10036000C0F14002504600F04DFA06460D46504698
:100370005946019A00F065FA10EB0800614100242B
:1003800087EA115284EAE7731A4340D0009A62B3B5
:10039000019A012A4FEA075215DC001B61EB0201AA
:1003A0004FF0004202EA0752CDE90042001C41F53D
:1003B000801132462B4600F09CFA03B0BDE8F08F66
:1003C00040462146F9E7001B61EB0201001C41F5A4
:1003D000801300185B412018A2F5001747EB0301BA
:1003E00040EAD570B6196D4111E06D084FEA360646
:1003F00045EAC0754FEA0752001B61EB0201001C81
:1004000041F5801149084FEA300000195141324648
:100410002B4603B0BDE8F04F00F05CBA0098012213
:1004200040000023D0EB020263EBE073009821460A
:100430004FEAE074B8EB000061EB0401E9E783F0F8
:1004400000435BE781F0004158E72DE9FE4F81EA68
:10045000030404F0004421F0004100944FF0000B2D
:1004600023F0004350EA01045ED052EA03045BD05B
:10047000C3F30A54C1F30A552C44A4F2F334019493
:10048000A0FB0254C1F3130141F48011C3F3130321
:1004900043F4801301FB024400FB034E840A970AD5
:1004A00044EA815447EA8357A4FB076802958D0A02
:1004B00005FB07854FEA932C04FB0C542705029D8E
:1004C0004FEA065847EA1637B5EB08056EEB070CFE
:1004D000870E920E47EA811742EA8312A7FB0201B8
:1004E000B6EB0B0164EB00042B0D43EA0C335E18F2
:1004F00044EB1C50DA465146E7FB0201C5F31304F6
:100500004FEA0B3343EA14534FEA0432019C43EAA7
:100510000603A4F10C040294009CCDE900B400F0A1
:10052000E8F903B0BDE8F08F00200146F9E72DE9B6
:10053000F04D81EA030404F0004B21F0004514461D
:100540004FF0000A23F0004150EA050220D054EA9F
:1005500001021DD0C5F30A570246C5F31303C1F3C8
:100560001300C1F30A5640F4801543F48013A7EB3F
:100570000608101BD64608F2FD3873EB050002D3BF
:1005800008F1010801E092185B41B8F1000F03DAAD
:1005900000200146BDE8F08D00204FF48011064692
:1005A00084460EE0171B73EB050705D3121B63EBA4
:1005B000050306434CEA010C49084FEA3000921843
:1005C0005B4150EA0107EDD152EA030012D082EA02
:1005D000040083EA0501084305D0101BAB4106D295
:1005E0000122002306E000224FF0004302E06FF0FA
:1005F000010253101AEB06004CEB085110EB0A00F5
:1006000041EB0B01BDE8F04D00F064B996230022E8
:10061000114600F031B90EB5C10F80EAE070084410
:10062000CA07002140F233438DE80E000A460B460C
:1006300000F05FF903B000BD0EB540F23341029106
:100640000021CDE900110A460B4600F052F903B033
:1006500000BD00F0004220F00040C10DC0F31600C4
:1006600040F400007F2901DA00207047962903DC5E
:10067000C1F19601C84001E096398840002AF4D0C3
:100680004042704720F00040C10DC0F3160040F416
:1006900000007F2901DA00207047962903DCC1F1B0
:1006A0009601C840704796398840704770B5C1F3CD
:1006B0000A5201F000450024C1F3130140F2FF3358
:1006C00041F480119A4201DA002070BD40F23343B8
:1006D0009A42A2F2334203DC524200F0A2F800E058
:1006E00090402C43F1D0404270BDC1F30A5210B586
:1006F000C1F3130140F2FF3341F480119A4201DA51
:10070000002010BD40F233439A42A2F2334203DC90
:10071000524200F086F810BD904010BD00F000423B
:1007200030F000400AD0C10D01F56071C0F3160031
:1007300042EA0151C20840071143704700200146B8
:100740007047000030B5041E71F1000404DB4FF067
:100750000044404264EB0101141E73F1000405DB08
:100760001C464FF00043524263EB04038B4208BF28
:10077000824230BD30B5041E71F1000404DB4FF03D
:100780000044404264EB0101141E73F1000405DBD8
:100790001C464FF00043524263EB0403994208BFEA
:1007A000904230BD01F0004330B421F0004150EAE6
:1007B000010206D00A0DA2F56072C1F31301002AEE
:1007C00002DC30BC00207047440F44EAC104C10081
:1007D000E01830BC00EBC25000F045B8002801DB47
:1007E000C0F10040002901DBC1F1004181427047A6
:1007F000002801DBC0F10040002901DBC1F100410C
:1008000088427047202A04DB203A00FA02F10020D7
:1008100070479140C2F1200320FA03F3194390403E
:100820007047202A04DB203A21FA02F000217047A9
:1008300021FA02F3D040C2F1200291400843194648
:100840007047202A06DBCB17203A41FA02F043EA30
:10085000E07306E041FA02F3D040C2F12002914079
:100860000843194670470029A8BF7047401C49003B
:1008700008BF20F00100704710B4B0FA80FC00FA05
:100880000CF050EA010404BF10BC704749B1CCF130
:10089000200421FA04F411FA0CF118BF01212143BC
:1008A0000843A3EB0C01CB1D4FEA00614FEA102077
:1008B00042BF002010BC704700EBC3501044002919
:1008C000A4BF10BC7047401C490008BF20F00100C5
:1008D00010BC704710B5141E73F1000408DA401CF8
:1008E00041F1000192185B411A4301D120F001004F
:1008F00010BD2DE9F04D92469B4611B1B1FA81F23F
:1009000002E0B0FA80F220329046FFF77BFF044607
:100910000F4640EA0A0041EA0B0153465A46084393
:1009200013D0114653EA010019D0C8F140025046D5
:10093000FFF777FF05460E46504659464246FFF7F9
:1009400061FF084305D0012004E020463946BDE898
:10095000F08D0020054346EAE0762C4337430A98A1
:100960006305E40AA0EB08000022FD0A44EA4754AC
:100970000A3002D500200146E9E701051019694156
:10098000DDE9084500196941BDE8F04DA2E7000026
:10099000064C074D06E0E06840F0010394E80700CC
:1009A00098471034AC42F6D3FFF7C6FB3C4600082C
:1009B0005C46000870B58C1810F8015B15F0070351
:1009C00001D110F8013B2A1106D110F8012B03E0E8
:1009D00010F8016B01F8016B5B1EF9D12B0705D4F0
:1009E0000023521E0DD401F8013BFAE710F8013B39
:1009F000CB1A921C03E013F8015B01F8015B521E55
:100A0000F9D5A142D8D3002070BD21B1826842F04F
:100A10000102826003E0826822F001028260704776
:100A200021B1826842F48072826003E0826822F41D
:100A300080728260704721B1826842F480128260C5
:100A400003E0826822F48012826070470146002031
:100A50008A6802F004020AB1012000E00020704719
:100A6000014600208A6802F008020AB1012000E075
:100A70000020704730B502460020002350680F4C1C
:100A800020400D790C6844EA0524204350609068AA
:100A90000B4C2040D1E902542C434D7944EA4504E3
:100AA00020439060D06A20F470000C7C641EE4B295
:100AB000234340EA0350D06230BD0000FFFEF0FF48
:100AC000FDF7F1FFF0B504460D4600200021092D89
:100AD00011DDE068A5F10A0606EB4607072606FACF
:100AE00007F18843A5F10A0606EB460603FA06F16C
:100AF0000843E0600CE0206905EB4507072606FA8D
:100B000007F1884305EB450603FA06F10843206127
:100B1000072A0FDA606B561E06EB86071F2606FAB9
:100B200007F18843561E06EB860605FA06F10843D0
:100B3000606322E00D2A0FDA206BD61F06EB8607D2
:100B40001F2606FA07F18843D61F06EB860605FA2C
:100B500006F10843206310E0E06AA2F10D0606EBFF
:100B600086071F2606FA07F18843A2F10D0606EB59
:100B7000860605FA06F10843E062F0BD816841F09F
:100B8000080181607047816841F00401816070470D
:100B900001460020012902D1034A108802E009B968
:100BA000024A1088704700009C1000209E10002010
:100BB000014890F900007047D600002001480078F5
:100BC00070470000D4000020014800787047000002
:100BD000D500002000BFFEE72DE9FF4F81B083461E
:100BE00091469A46DDE91078129E0E9D55F8260032
:100BF0003860002045F8260000240DE057F8241046
:100C00005BF82400FFF70AFB009055F82610FFF769
:100C1000ADFA45F82600641C4C45EFDD01240EE0DA
:100C200058F82410029A52F82400FFF7F7FA0090BF
:100C300055F82610FFF7EFFA45F82600641C5445D6
:100C4000EEDD55F826001249FFF7D2FD04D355F822
:100C500026001049FFF7C2FD4C4605E0601E57F81C
:100C6000200047F82400641E012CF7DA544605E002
:100C7000601E58F8200048F82400641E012CF7DAA2
:100C800055F82600C8F8040005B0BDE8F08F000054
:100C900020BCBE4C20BCBECC2DE9F04F8BB0002157
:100CA000884689468B460C460D460E460F4600F098
:100CB000A3FE0790079806902021704800F032FEAE
:100CC000012811D103206E4908704FF0010A07E096
:100CD00000206B4901F80A000AF101004FFA80FA7E
:100CE000BAF1050FF4DBC5E04FF0000A56E06548A5
:100CF00000EBCA0003C800221346CDE90401FFF748
:100D000021FD04D80698401EC0B2069042E05D481E
:100D100000EBCA0003C842464B46CDE90401FFF789
:100D2000EDFA80468946BAF1000F0ED1554800EB26
:100D3000CA0030C8534800EBCA00C0C80AF0FF0020
:100D400008900AF0FF00099023E04E4800EBCA002B
:100D500003C832463B46CDE90401FFF70BFD06D23E
:100D6000484800EBCA00C0C80AF0FF000890454898
:100D700000EBCA0003C822462B46CDE90401FFF769
:100D8000E1FC06D23F4800EBCA0030C80AF0FF0081
:100D9000099000BF0AF101004FFA80FA0798401E3F
:100DA0005045A4DA22462B4630463946FFF747FB2A
:100DB0000022354BCDE90401FFF7DCFC1DD22246B1
:100DC0002B4630463946FFF799FA42464B46CDE965
:100DD0000401FFF737FB804689460698801EC0B2A3
:100DE00006900022274B089803EBC0000260426087
:100DF000099903EBC1010A604A600798B0B10698EF
:100E0000FFF71AFC02460B46CDE900014046494671
:100E1000FFF78DFB00221D4BCDE90201FFF715FB0B
:100E2000CDE90401FFF742FC0FFA80FB4FF480711B
:100E3000174800F080FD01280BD1022010490870EE
:100E40004FEA1B20487081F802B00020C87008717A
:100E500010E04FF400710E4800F06DFD012809D13B
:100E6000074908700020487088704FEA1B20C8703E
:100E700081F804B00BB0BDE8F08F0000000C014019
:100E80005F000020881E00200000E03F000024409A
:100E9000001001400020014908707047B512002081
:100EA0000020014908707047B1120020002001495C
:100EB00008707047B0120020002001490870704788
:100EC000B41200200020014908707047B2120020BF
:100ED0000020014908707047B312002000B587B0A8
:100EE0004FF4004001F0E0FE0121480201F018FF3C
:100EF0000121042001F014FF4020ADF8180000206B
:100F00008DF81B0006A9254800F038FC2020ADF81C
:100F1000180000208DF81B0006A9204800F02EFCC8
:100F20001020ADF8180000208DF81B0006A91C4801
:100F300000F024FC0020019001208DF80800002022
:100F40008DF809004FF40020039000200490012048
:100F50008DF8140001A91348FFF78CFD01211148F9
:100F6000FFF75EFD01210F48FFF765FD01210D48E8
:100F7000FFF74BFD0B48FFF701FE00BF0948FFF7E5
:100F80006FFD0028FAD10748FFF7FDFD00BF0548B7
:100F9000FFF75CFD0028FAD107B000BD0008014052
:100FA000001001400024014000B585B0012104205B
:100FB00001F0B6FE0121480701F092FE1020ADF8C5
:100FC000100003208DF8120000208DF8130004A9F2
:100FD0000B4800F0D3FB2C200090002001900290E1
:100FE0000390694600F05EFA06480188002000F090
:100FF00073FA0121002000F041FA05B000BD0000A5
:1010000000080140C012002000B58BB00121084645
:1010100001F056FE114800F07BFA1148009011488B
:101020000190002002900120039000200490802075
:101030000590400006908000079020200890C00195
:10104000099000200A906946044800F007FB01213E
:10105000024800F051FA0BB000BD00000800024049
:101060004C240140C212002008B50121042001F0E7
:1010700057FE8020ADF8000048208DF80300694637
:10108000014800F07BFB08BD0008014008B50121C4
:10109000102001F045FE4FF40050ADF80000032091
:1010A0008DF8020010208DF803006946044800F016
:1010B00065FB00224FF40051014800F049FC08BDD7
:1010C0000010014008B50121102001F029FE012186
:1010D000202001F025FE4FF40060ADF8000048200C
:1010E0008DF8030069460C4800F048FB4FF480502F
:1010F000ADF8000048208DF803006946064800F06E
:101100003DFB0420ADF8000048208DF8030069463F
:10111000024800F033FB08BD0010014000140140FC
:1011200008B50121102001F0FBFD4FF48040ADF81F
:10113000000003208DF8020010208DF8030069469E
:101140000D4800F01BFB012291030B4800F000FC4E
:101150004FF40040ADF8000003208DF8020010208D
:101160008DF803006946044800F008FB0122D10312
:10117000014800F0EDFB08BD0010014010B54FF430
:10118000A06000F087FF10BD10B501F0E9FD4FF43D
:10119000803001F0A7FE01F003FF0446012C24D1AA
:1011A000102000F0D1FA022000F0DCFA002001F05B
:1011B0008DFE002001F0C8FEA00201F0B9FE4FF440
:1011C000E011200401F0D2FE012001F0C9FE00BFB1
:1011D000392001F055FE0028FAD0022001F0D4FE9B
:1011E00000BF01F06BFE0828FBD110BD08B501213E
:1011F000042001F095FD0420ADF8000003208DF8D7
:10120000020010208DF8030069460D4800F0B6FA80
:10121000012204210A4800F09BFB0820ADF80000E1
:1012200003208DF8020010208DF803006946044861
:1012300000F0A4FA00220821014800F089FB08BD53
:10124000000801407FB505460C460121084601F023
:1012500047FDADF80850ADF804400020ADF80A0095
:10126000ADF8060001A94FF0804002F017FE012200
:101270001146900702F0FFFD1C208DF800000020B1
:101280008DF8010003208DF8020001208DF8030085
:10129000684600F0C7FE0121880702F0DAFC7FBD36
:1012A0003EB505460C460121022001F019FDADF8BE
:1012B0000450ADF800400020ADF80600ADF8020083
:1012C0006946084802F0EAFD2021064802F0DCFDEC
:1012D00001221146034802F0CEFD0121014802F02F
:1012E000B8FC3EBD000400403EB505460C46012159
:1012F000042001F0F5FC0C4802F0B8FCADF80450F5
:10130000ADF800400020ADF80600ADF802006946D7
:10131000054802F0C3FD2021034802F0B5FD01217C
:10132000014802F096FC3EBD000800407FB505462E
:101330000C460121082001F0D3FCADF80850ADF8AF
:1013400004400020ADF80A00ADF8060001A90E48DF
:1013500002F0A4FD012211460B4802F08CFD322060
:101360008DF8000000208DF8010003208DF80200A8
:1013700001208DF80300684600F054FE0121024868
:1013800002F067FC7FBD0000000C004010B586B085
:1013900004460121880301F0C3FC0121042001F06F
:1013A000BFFC4FF40070ADF8140018208DF8170042
:1013B00003208DF8160005A9224800F0DFF94FF44C
:1013C0008060ADF8140004208DF8170005A91D48B1
:1013D00000F0D4F901A802F064FF01940020ADF8F8
:1013E0000800ADF80A00ADF80C000C20ADF80E00B6
:1013F0000020ADF8100001A9134802F0DDFE252001
:101400008DF8000001208DF801008DF802008DF8A4
:101410000300684600F006FE012240F225510A480A
:1014200002F0A5FE012240F22771074802F09FFE5C
:101430000121054802F058FE00200449087006B05A
:1014400010BD00000008014000380140BE1200201D
:101450002DE9F0470446894604EB0900FFF7DBF865
:101460000746044A044BFEF7F0FF0546FFF79AF9DA
:10147000BDE8F087A4703D0AD7A3E03F39B1084A20
:101480001268012383401A43054B1A6006E0044AA0
:101490001268012383409A43014B1A607047000091
:1014A0000074004030B5002200230A4C226840F648
:1014B000FE748440A243D1E900452C438D682C433F
:1014C000CD6844EA050303FA00F42243014C22608C
:1014D00030BD00000074004008B500220092054AAB
:1014E000009200F10802009B1A440092009A1160D9
:1014F00008BD00000074004021B1026842F0010202
:10150000026004E002684FF6FE731A400260704702
:1015100001684FF6FE7211400160002101604160D8
:101520008160C1604B49884208D14A4908394968FD
:1015300041F00F01474A083A51608AE045491431A9
:10154000884208D143490839496841F0F001414ACD
:10155000083A51607DE03F492831884208D13D4931
:101560000839496841F470613A4A083A516070E0BC
:1015700038493C31884208D136490839496841F434
:101580007041344A083A516063E032495031884230
:1015900008D130490839496841F470212D4A083A88
:1015A000516056E02B496431884208D129490839F5
:1015B000496841F47001274A083A516049E02549D9
:1015C0007831884208D123490839496841F070616F
:1015D000204A083A51603CE01F49884206D1011F69
:1015E000096841F00F01021F116032E01A491431FD
:1015F000884208D11849091F096841F0F001164ACC
:10160000121F116025E014492831884208D112497F
:10161000091F096841F470610F4A121F116018E038
:101620000D493C31884208D10B49091F096841F432
:101630007041094A121F11600BE00749503188427E
:1016400007D10549091F096841F47021024A121F98
:1016500011607047080002400804024010B50022E3
:10166000026847F6F0739A430C6A8B6823430C694F
:1016700023434C6923438C692343CC6923434C6A3D
:1016800023438C6A23431A430260CB6843600B6890
:1016900083604B68C36010BD30B50346002016E080
:1016A000B3F900509C68645D0C541C88641C24B21F
:1016B0001C80B3F90040B3F90450AC4201DB0024B4
:1016C0001C80441C20B2DC88641E24B2DC80B3F988
:1016D0000640002C01DD9042E2DB30BD704770B562
:1016E0000346002016E00C5CB3F902609D68AC551F
:1016F0005C88641C24B25C80B3F90240B3F90450E6
:10170000AC4201DB00245C80441C20B2DC88641CF9
:1017100024B2DC80B3F90640B3F90450AC4201DADC
:101720009042E0DB70BD000010B501200449087054
:10173000012240F22771034802F019FD10BD00009C
:10174000BE120020003801400549096821F010014F
:10175000034A116011460968014311607047000097
:101760000020024001460020034A106800F03800C3
:101770000843106070470000002002402DE9F0414E
:10178000024600250026002000230024002791F8AF
:1017900003C00CF00F0591F803C00CF0100CBCF165
:1017A000000F03D091F802C04CEA050591F800C083
:1017B000BCF1000F31D0146800202BE04FF0010C79
:1017C0000CFA00F3B1F800C00CEA03069E4220D1E7
:1017D00083004FF00F0C0CFA03F7BC4305FA03FC2F
:1017E0004CEA040491F803C0BCF1280F06D14FF075
:1017F000010C0CFA00FCC2F814C00AE091F803C016
:10180000BCF1480F05D14FF0010C0CFA00FCC2F8F6
:1018100010C0401C0828D1D31460B1F800C0BCF13E
:10182000FF0F34DD546800202EE000F1080C4FF06B
:10183000010808FA0CF3B1F800C00CEA03069E4256
:1018400021D183004FF00F0C0CFA03F7BC4305FACB
:1018500003FC4CEA040491F803C0BCF1280F05D145
:1018600000F1080C08FA0CF8C2F8148091F803C0D3
:10187000BCF1480F07D100F1080C4FF0010808FA3D
:101880000CF8C2F81080401C0828CED35460BDE884
:10189000F0810000F0B50A46002300240021002555
:1018A00000F00046B6F1004F02D11D4EF16901E093
:1018B0001B4E7168C0F3034583B200F44016B6F5C1
:1018C000401F08D121F07061154E766826F07066D1
:1018D000134F7E6012E000F48016B6F5801F06D12B
:1018E000032606FA05F4A14341F0706106E0460DB7
:1018F000360103FA06F6B14341F0706122B1460D9C
:10190000360103FA06F6314300F00046B6F1004F07
:1019100002D1034EF16101E0014E7160F0BD0000A3
:10192000000001400246002093680B400BB10120EB
:1019300000E00020704702460020D3680B400BB146
:10194000012000E00020704741617047016170474D
:101950000AB1016100E04161704700000148007870
:1019600070470000B5120020014800787047000061
:10197000B11200200148007870470000B01200202A
:101980000148007870470000B41200200148007838
:1019900070470000B2120020014800787047000034
:1019A000B31200200149098801807047C21200204B
:1019B00010B502460B461488012106E032F81100EA
:1019C000A04201DD32F81140491C581E8842F5DC66
:1019D000A0B210BD10B502460B461488012106E0E6
:1019E00032F81100A04201DA32F81140491C581EA9
:1019F0008842F5DCA0B210BD0148007870470000B5
:101A0000300000202DE9FF4F9EB004468C462B9DF0
:101A10000023002600200027DDF884A0BAF800A0EB
:101A20001FFA8AF8BCF800A01FFA8AF9D4F800A0BF
:101A3000D2F800B0DA4528DA00211FE001F1010AEE
:101A400054F82AA055F82AA052F821B055F82BB026
:101A5000AAEB0B0ABAF1050F0CDD01F1010A34F80B
:101A60002AA01FFA8AFBBA4607F1010E1FFA8EF769
:101A70002DF81AB001F1010A1FFA8AF1414526DA60
:101A8000A9F1010A8A45D9DC21E000211BE054F8C4
:101A900021A055F82AA052F821B055F82BB0AAEB96
:101AA0000B0ABAF1050F0ADD34F821A01FFA8AFBF0
:101AB000BA4607F1010E1FFA8EF72DF81AB001F1A0
:101AC000010A1FFA8AF1494501DA4145DFDB0021AD
:101AD00010E001F1010A3DF81AA03DF811B0AAEB9F
:101AE0000B0A564403F1010A1FFA8AF301F1010AB5
:101AF0001FFA8AF1A7F1010A8A45EADC002B11DD01
:101B0000B6FBF3F641F2707ABAFBF6FA0AEB8A0BEF
:101B10000BEBCA0A4FF00E0BBAFBFBFA1FFA8AF066
:101B2000002300E0002022B0BDE8F08F01480078DB
:101B300070470000D300002000BFFEE710B540F260
:101B4000CF210120FFF7ACFBFFF7C8F9FFF75CFAE4
:101B5000FFF79CFAFFF788FA10BD000010B50020CF
:101B600007490880084601880020FFF7B5FCFFF709
:101B70001BFA40F2CF213120FFF7B6FB10BD000069
:101B8000C0120020704710B501F09CFF00F07AF8F9
:101B900000F02AF84FF4E13000F031F900F024F9B8
:101BA00000F01EF800F07EF800F00EF800F044F8A7
:101BB000FFF7D4FFFFF7C2FF00F0A8F800F071F8BC
:101BC000FFF7E0FF10BD000010B5FFF77BFA002023
:101BD000024908704870887010BD0000CA000020DB
:101BE00010B5FFF79DFA10BD10B5FFF7C7FA10BD8D
:101BF00000210C4A117051709170002005E0002204
:101C00000849C91C0A54411C08B20728F7DB002107
:101C1000044A5172044A1170044A1170044A117046
:101C200070470000583E0020C7000020C800002078
:101C3000C9000020704700000020054908700549D0
:101C4000087005490870FF200449087070470000BB
:101C5000D3000020D4000020D5000020D6000020B2
:101C600030B50B460024048044808280C4808360A9
:101C7000002104E0002485686C544C1C21B2914280
:101C8000F8DB30BD10B5FFF77FFA10BD704710B517
:101C9000FFF7AEFFFFF7CEFFFFF7F8FF00F010F9F8
:101CA00010BD704730B5164800684FF47A72B0FB2B
:101CB000F2F1B1F1807F01D301201DE021F07F40DE
:101CC000401E4FF0E022506150170F22002807DA23
:101CD00013071D0E0B4B00F00F04241F1D5503E0CE
:101CE00013071C0E084B1C5400BF00204FF0E022CD
:101CF000906107201061002008B100BFFEE730BDF1
:101D0000E812002018ED00E000E400E008B5012131
:101D1000082001F005F80121102001F001F801214F
:101D2000084600F0FDFF01212C48FFF7B3FD082015
:101D3000ADF8000010208DF8030003208DF802009C
:101D400069462748FFF71AFD1020ADF800008DF80E
:101D5000030003208DF8020069462148FFF70EFDBD
:101D60004FF48070ADF8000010208DF803000320C0
:101D70008DF8020069461B48FFF700FD4FF4007024
:101D8000ADF8000010208DF8030003208DF802004C
:101D900069461448FFF7F2FC2020ADF80000482007
:101DA0008DF8030069460E48FFF7E8FC01210B4857
:101DB000FFF770FD08210A48FFF7C6FD102108480B
:101DC000FFF7C2FD4FF480710648FFF7BDFD4FF4E9
:101DD00000710448FFF7B8FD08BD000000023000A4
:101DE000000C01400010014010B5472140F2E730DF
:101DF000FFF728FA47216320FFF798FA10BD10B5C6
:101E0000044600F005F82046FFF7C0FA10BD0000B8
:101E100010B5002406E00020094908550949085575
:101E2000601C04B2642CF6DB642205490648FFF707
:101E300017FF642203490548FFF712FF10BD000099
:101E400088400020EC400020704000207C400020B2
:101E50000022114B1A605A60104B1A605A601049E8
:101E6000104BC3E900211049104BC3E900210021A8
:101E70000F4B196059600F4A1170002008E00022D2
:101E80000D490E4B03EBC003C3E90021411CC8B24E
:101E90000A28F4DB70470000080000201000002032
:101EA00000B6CC401800002000001940200000209F
:101EB0002800002030000020000024C0881E0020E0
:101EC00000B5FFF7C5FF00200749087007490870F3
:101ED00007490870074908700749087007490870E2
:101EE00001200749087000BD5C0000205D00002053
:101EF0005E00002000000020020000200100002001
:101F00000300002010B50446012C0AD100228103F1
:101F10001848FFF71DFD0022E1031648FFF718FDE2
:101F200026E0022C0AD1012291031248FFF710FD8E
:101F30000122D1030F48FFF70BFD19E0032C0BD151
:101F400000224FF480410B48FFF702FD0122D1032C
:101F50000848FFF7FDFC0BE0042C09D10122910396
:101F60000448FFF7F5FC002261030248FFF7F0FC8C
:101F700010BD0000001001402DE9F14F82B000209B
:101F8000044605464FF0400B0DE0ABF101001B4944
:101F900001EBC000D0E90010184A02EBCB02C2E905
:101FA0000010ABF1010BBBF1000FEEDA0298FEF767
:101FB00043FB124A03C24FF0000A17E00F4800EB40
:101FC000CA00D0E900630E4800EBCA003246D0E9EF
:101FD00000814046FEF739FA22462B46CDE9000142
:101FE000FEF78CF904460D460AF1010ABAF1410FD9
:101FF000E4DB2046294603B0BDE8F08F683E0020B0
:10200000A810002000BFFEE77047000000F01F028C
:1020100001219140024A430942F823107047000011
:1020200080E200E070B5002100230F22C47804B3E1
:10203000154C246804F4E064C4F5E064210AC1F19D
:102040000403CA40447804FA03F18478144021431D
:1020500009010E4C0678A155047804F01F050124EF
:10206000AC4005786D11AD0005F1E025C5F80041E3
:1020700009E0047804F01F050124AC40044D067803
:10208000761145F8264070BD0CED00E000E400E05C
:1020900080E100E002490143024A116070470000FC
:1020A0000000FA050CED00E070B50446002520782C
:1020B000802803DA0125204600F002F8284670BD8A
:1020C00010B50378002208210DE05406220E445C6E
:1020D00042EAD412445C44F080044454445C1C44FE
:1020E000E3B24C1EE1B20129EFDC42F080044470FF
:1020F00044781C44E3B243F08004447210BD70473E
:1021000010B5FFF72BFC08B1FEF7C4FE10BD0000B0
:1021100038B5FFF729FC00287ED0FFF707FD01281E
:102120004BD10220524908706846FFF73BFC202142
:102130005048FFF7F7FB504908705048007828B125
:1021400000204E49087005204D490870FEF730FD0B
:10215000012807D0FEF72CFD022803D0464800785E
:10216000012804D1FEF798FD464801F0A2FAFFF7D6
:102170006FFE43480078052805D1002040490870CB
:102180000120414908703C480078012807D13F49A7
:10219000087000203A4908703B49087044E03B4809
:1021A0000078002840D000203549087001203649C9
:1021B000087000203549087036E0FFF7B7FC0228A8
:1021C00032D180213248FFF7ADFB324908703248E6
:1021D0000088000A314908702F480078304908709B
:1021E0002E4800782F4908702D480078487008461E
:1021F00001F0BCF92748007818B9264800782A4928
:1022000008702448007801280BD12248007840F05B
:102210000E002049087000E028E0084600782249B6
:102220000870214801F0BDF9FFF780FC01281BD0A0
:102230000F480078C0B10E490978481C00EBD071F6
:102240004910A0EB41010A4A117003200D490870A2
:10225000012404E000200B490855601C44B2052C01
:10226000F8DB084801F025FAFEF71AFE38BD000039
:1022700031000020000C0140030000205D00002020
:10228000010000205F0000205C0000200200002010
:1022900000080140C600002084000020B800002093
:1022A000B9000020BA000020C00000202DE9FF5F27
:1022B0004FF0000B0020039000248146FFF75AFBEB
:1022C00000287DD0FE480078052812DBFD4AFE4933
:1022D000002001F0DFF8FD4AFD49012001F0DAF8A5
:1022E000FC4AFD49022001F0D5F80020F4490870AD
:1022F00004E0F3480078401CF1490870FFF716FC31
:1023000002287DD1F5480078401CF4490870F44853
:1023100000F062FE002874D0F1480088FFF72CFE20
:1023200005460E4628463146FEF73CFA0290ED4A35
:10233000ED4902A802F010F90298FEF7EFF9002229
:10234000EA4BCDE90001FDF7D9FF0746FEF72AFA6F
:1023500002900298FEF796F91FFA80FADF4800789B
:10236000042813DB4FEA1A20E1490870E14981F89B
:1023700000A0DF480078E0490870DE480078487027
:10238000084601F029F90020D4490870DB48DC49EF
:10239000098820F811A0DA480088401CD849088034
:1023A00008460088D749098888421DDB0020D449A7
:1023B0000880D4480188D148FFF7FAFAD24900E0F2
:1023C0000FE20880CF480188CC48FFF703FBCF49D4
:1023D000088008460188CC480088FFF739F807468E
:1023E000FEF750F9CA490880CA480078CA490870FF
:1023F000C7480088824505DD0120C649087004E011
:1024000066E064E00020C3490870C34800780028F3
:102410005DD1C04800780128FAD1B9480088BF4989
:102420000988401ABE490988884210DCBB480088E8
:10243000B349098888424ADDB8480088C0F5FA6087
:10244000AF4909880844B64909888842F3DDB54890
:102450000068401CB3490860086800EBD07149105F
:10246000A0EB4101012903D1A5480088AE490860CD
:10247000AC49086800EBD0714910A0EB410111BBD9
:102480009F480088A949086008460068A64909686D
:1024900088420DDAA548006800F5FA60A24909688B
:1024A000401A47F2305191FBF0F0A14908800AE050
:1024B0009E4800689C490968401A47F2305191FBD8
:1024C000F0F09B4908808E4800889449088086E196
:1024D000FFF72CFB0328FAD19649974800F0DCFE61
:1024E0000120FEF755FB954908800020FEF750FBC0
:1024F000934908804FF07E5192480068FDF736FE00
:102500009049086090498F480068FEF771F9DED85D
:1025100089480088FEF77AF8074601F01DFF8B49CD
:102520000860072411E0601E894951F8200041F835
:102530002400601E0A4652F8201086480068FDF705
:1025400015FE84490860601EC4B2002CEBDC7F4895
:1025500000687F4908607D4801687E480068FDF793
:1025600005FE7C4908604FF082417A480068FDF71B
:1025700087FE79490860092407E0601E774951F811
:10258000200041F82400601EC4B2002CF5DC724823
:102590000068FEF777F887B23846FEF737F86F49DC
:1025A0000860002407E06D4850F824006C4941F8A9
:1025B0002400601CC4B2092CF5DD002428E04FF093
:1025C00000091FE0664B09F1010253F822101A4678
:1025D00052F82900FEF70CF910D2614850F8290092
:1025E00003905F4909F1010051F8200041F82900EA
:1025F0000A4609F10101039842F8210009F101009E
:1026000000F0FF09C4F109004845DBDC601CC4B2DE
:10261000C4F10A00A042D2DC514840695149086027
:1026200008460068FEF715F84F49504A128841F8ED
:1026300022004F4948480068FDF7EAFD4FF080410D
:102640000190FDF7EBFD80464A49FDF78FFD0746F7
:10265000FEF718F800F0FF0B00203F4908603D49E5
:10266000086045484549097800F801B043480078BA
:10267000401C4249087008460078042807DB40489F
:1026800001783D4800F0F7FF00203C4908703248CF
:1026900001683C480068FDF769FD3A4908603A481E
:1026A0000088401C3849088008460088642806DBFA
:1026B0003648027836480178002000F0B9FF69E01A
:1026C0008A000020A12B0008932C0008052C00088C
:1026D000952C0008912C0008972C00089C000020E5
:1026E000760000204C3E0020403E00200030A140FB
:1026F000A3000020A40000209D000020D81E002080
:10270000780000207A000020700000207200002075
:10271000740000207D0000207C0000208800002044
:102720008600002080000020680000206C0000204F
:1027300084000020340000203200002036000020F9
:1027400038000020940000200000A0405400002029
:10275000401E00204C00002048000020601E002089
:10276000183E002058000020B017002090000020E4
:102770000080A24400002041980000208E0000202C
:1027800050000020440000208C0000203A0000206F
:102790005100002014480088401C13490880084656
:1027A0000088B0F5967F17DB10481149114B124A8B
:1027B000CDE900104FF49671104801F0F1FD0F487B
:1027C0000A4B0B4A0B4900900B48FFF71BF90C49C9
:1027D000087000200449088000200A490860FEF7BC
:1027E00065FBBDE8FF9F0000900000204000002036
:1027F000501D00203C000020601C0020B01700206D
:10280000510000209400002010B5FFF7B9F801280E
:1028100014D148480088401C464908800846008872
:1028200002280CD14448008800F062FF042143488C
:10283000FFF78CF808214148FFF786F876E03D481D
:10284000008805280AD13E4800F0CEFB3C480088AD
:102850003C493D4A128821F8120067E0354800885B
:10286000062808D104213548FFF76EF808213348BF
:10287000FFF76AF85AE02F4800880A280CD133483D
:10288000008800F035FF04212C48FFF75DF808218F
:102890002A48FFF75BF849E0264800880D280AD14E
:1028A0002B4800F0A1FB2A4800882A49264A1288B2
:1028B00021F812003AE01F4800880E2808D10421B0
:1028C0001E48FFF741F808211C48FFF73DF82DE0AE
:1028D00018480088142829DB19480088B0F5FF6FD4
:1028E00003DB90201C4908700AE015480088642822
:1028F00003DC80201849087002E0002016490870A7
:1029000011480088401C10490880002009490880AF
:102910000D480088B0F5967F08DB0E49094800F0A5
:1029200075FF0E490880002007490880FEF7C4FAA9
:1029300010BD0000A8000020360000200008014063
:102940003200002000130020A600002038000020E4
:102950003400002058150020500000203A000020CC
:10296000FEB5FFF713F800286FD0654800780128FE
:1029700014D102A8FFF716F8BDF80800FDF75CFEB9
:1029800006464FF066325F4BFDF75FFD04460022BE
:102990005D4BFDF7CCFD5D4A03C269E05848007805
:1029A00002281ED102A8FEF7FDFFBDF80800FDF7C2
:1029B00043FE06464FF06632524BFDF746FD044695
:1029C0000022514BFDF7B3FD514A03C25148524911
:1029D000CDE900104E484D490CC803C900F018FB62
:1029E00046E047480078032842D1FEF7E1F8012885
:1029F00003D0FEF7DDF802282CD120214748FEF74E
:102A000091FF4749087008460078B0B902A8FEF760
:102A1000C9FFBDF80800FDF70FFE06464FF066320D
:102A2000384BFDF712FD04460022374BFDF77FFDC2
:102A30003C4A03C201203C490870FEF7B9F802285D
:102A400004D1032001F07CFA12E058E0042001F0E8
:102A500077FA0DE0FEF7ACF8032803D1012001F06E
:102A60006FFA05E0FEF7A4F810B9022001F068FA49
:102A700023480078401C00F00300214908702A48D0
:102A8000007818B3002028490870224803C8CDE90F
:102A90000001214823490CC803C900F045FB234A23
:102AA00003C2224903C900F05FFB214A214B1B7876
:102AB00002EBC30203C21F480078401C1D49087086
:102AC0001D480078401C40B21B4908701A4890F914
:102AD0000000042809DC0A48007830B91048007862
:102AE00018B901200649087007E00D48007820B1A8
:102AF00000201149087002490870FEF7E3F9FEBD95
:102B00005C00002066660A4000FEAF40080000201E
:102B1000100000202000002018000020000C0140C0
:102B200003000020B000002000000020280000204A
:102B3000881E0020300000200100002010B5FEF7A4
:102B40002BFF38B314480078012802D101F0F8F9BE
:102B500018E011480078022802D101F0F1F911E0E3
:102B60000D48007803280DD1FEF72EF850B9FEF776
:102B700025F8012803D1032001F0E2F902E0042046
:102B800001F0DEF90448007810B101200349087013
:102B9000FEF79EF910BD00005C0000205E000020E2
:102BA00010B516480078032190FBF1F201FB1200EA
:102BB000401C1249087008460078012806D10723F6
:102BC000012206210E48FDF77DFF16E00B48007834
:102BD000022806D1072301220E210948FDF772FFC2
:102BE0000BE006480078032807D1072301220521BE
:102BF0000348FDF767FFFEF7F9FA10BDD300002088
:102C00000024014010B51C480078012832D11B492E
:102C100008701B4908701B490978481C00EBD071EB
:102C20004910A0EB4101174A1170104600780128A5
:102C300003D015480078012813D1134800780128E3
:102C400005D100201049087001200E4908700220AB
:102C50000E4908700320FFF755F9032001F070F9C1
:102C600008E00120094908700420FFF74BF904200F
:102C700001F066F910BD0000D30000205D000020C7
:102C80005C000020D4000020D5000020D6000020E9
:102C900070477047704770470146C88808B90120DF
:102CA00070470020FCE7000001460020034A5068FE
:102CB00020F440400843506070470000001002407C
:102CC00029B1064A52690243044B5A6104E0034A9F
:102CD00052698243014B5A61704700000010024064
:102CE00029B1064AD2690243044BDA6104E0034A7F
:102CF000D2698243014BDA61704700000010024044
:102D000029B1064A12690243044B1A6104E0034ADE
:102D100012698243014B1A617047000000100240A3
:102D200029B1064A92690243044B9A6104E0034ABE
:102D300092698243014B9A61704700000010024083
:102D400029B1064AD2680243044BDA6004E0034A20
:102D5000D2688243014BDA607047000000100240E5
:102D60000F48006840F001000D49086008464068BF
:102D70000C4908400A494860084600680A4908406A
:102D8000074908600846006820F48020086008466B
:102D9000406820F4FE0048604FF41F0088607047D0
:102DA000001002400000FFF8FFFFF6FE30B50021E2
:102DB0000022002400232D4D6D6805F00C0121B187
:102DC000042905D0082923D105E0294D056022E01A
:102DD000274D05601FE0254D6D6805F47012234DE9
:102DE0006D6805F48034022505EB92421CB9214D33
:102DF000554305600BE01D4D6D6805F400351DB1B0
:102E00001C4D5543056002E0194D5543056002E035
:102E1000174D056000BF00BF144D6D6805F0F0014F
:102E20000909154D6B5C0568DD4045600F4D6D6807
:102E300005F4E061090A104D6B5C4568DD40856072
:102E40000A4D6D6805F46051C90A0B4D6B5C45680D
:102E5000DD40C560054D6D6805F44041890B074DA7
:102E60006B5CC568B5FBF3F5056130BD0010024031
:102E700000127A0000093D00CE120020DE12002070
:102E800010B501460022002300204A11012A02D178
:102E9000094C236806E0022A02D1074C236A01E0AC
:102EA000054C636A01F01F02012494401C400CB1E0
:102EB000012000E0002010BD0010024002484068E0
:102EC00000F00C0070470000001002400146002096
:102ED000034A506820F0F00008435060704700003B
:102EE000001002401149096821F480310F4A116035
:102EF0001146096821F480211160B0F5803F03D0AC
:102F0000B0F5802F0ED106E00849096841F4803100
:102F1000064A116007E00549096841F4A021034A07
:102F2000116000E000BF00BF7047000000100240C9
:102F300001460020034A506820F4E06008435060D6
:102F4000704700000010024001460020034A50680C
:102F500020F4605040EAC100506070470010024009
:102F60000149086670470000000042420246002006
:102F7000044B586820F47C1042EA01031843014BCB
:102F8000586070470010024001460020034A506814
:102F900020F003000843506070470000001002401A
:102FA00038B5002000900024002500BF3120FFF735
:102FB00067FF05460098401C00900098B0F5A06F90
:102FC00001D0002DF2D03120FFF75AFF08B10124C3
:102FD00000E00024204638BD0146024800880880F1
:102FE00001207047C2120020014909880180704702
:102FF000C212002070B50446002501222146034874
:10300000FEF74AFBC5B2284670BD000070400020A4
:103010002DE9FF5F04460D4616461F4600BF00BF60
:1030200032463B4600202749FDF70FFA8046894685
:103030000022254B20462946FDF707FA82464246E4
:103040004B46FDF7FCF932463B46CDE902012046EE
:103050002946FDF7F7F9804600221C4BFDF7F5F9EC
:10306000CDE90001DDE90223FDF761FA0E9A03C202
:103070000022154B20462946FDF7E7F982468B468C
:1030800032463B4600200F49FDF7DFF980465246A5
:103090005B46FDF7D4F900220D4BCDE90201204635
:1030A0002946FDF7D2F9804632463B46FDF7CDF979
:1030B000CDE90001DDE90223FDF739FA0F9A03C2D9
:1030C000BDE8FF9F00B6BC4000E07F404A994C41FC
:1030D00000B8BA4000200B4908700B4908800B4922
:1030E00008800B4908800B4908800B4908800B4970
:1030F00008804FF4C8600A4908804FF4AF6009495E
:1031000008807047881000208E100020901000204A
:10311000961000209810002092100020941000209B
:103120009C1000209E1000202DE9FC5F04460D46F7
:1031300016461F4620462946DDE90C23FDF782F995
:103140008046894632463B4620462946FDF77DF9B2
:10315000824642464B46FDF7EAF9CDE90001DDE93A
:103160000001BDE8FC9F00002DE9FF4704460D4625
:1031700000210E460F468A4680E0454800EBCA0112
:10318000D1E90083424620462946FDF7DBFA43D2C7
:103190003F490AF1010001EBC001D1E90083424639
:1031A00020462946FDF7E6FA36D239490AF10100F0
:1031B00001EBC001D1E90083424620462946FDF7D4
:1031C0003EF9CDE90201324800EBCA00D0E90083A4
:1031D000424620462946FDF735F9CDE90001DDE9F3
:1031E0000223FDF7C7FA0BD80AF10200FDF713FA24
:1031F00080460022274BFDF79AF906460F4641E02C
:103200000AF10100FDF707FA80460022214BFDF785
:103210008EF906460F4635E01D4800EBCA00D0E99E
:103220000083424620462946FDF78CFA0BD10AF16D
:103230000100FDF7F0F980460022164BFDF777F903
:1032400006460F461EE012490AF1010001EBC000DC
:10325000D0E90083424620462946FDF773FA0BD198
:103260000AF10200FDF7D7F980460022094BFDF76D
:103270005EF906460F4605E00AF1010ABAF5FB7F42
:10328000FFF47BAF00BF3046394604B0BDE8F0879D
:10329000D80000200000244070B504460D46208868
:1032A0006E49088028886E4908806E480078012899
:1032B0007ED16A480088642803DB084600886428B9
:1032C0000EDA69480088401C674908800846008873
:1032D0000A2804DBFFF7FEFE002062490870BCE00C
:1032E00000206149088001205E4908705F4800881D
:1032F0000A2805DA5D480088401C5C490880ACE07B
:103300005B480078002845D15448008840F21451A9
:10331000884211DD51480088B0F5AF6F0CDA55488E
:103320000088401C5349088008460088032831DB88
:1033300000204F4908702DE04F480088401C4E493E
:10334000088008460088052824DB002008804348C0
:10335000008840F21451884209DA40480088642805
:1033600005DD46480088401E444908800FE03B4880
:103370000088B0F5AF6F0ADD3848008840F60201DA
:10338000884204DA3D480088401C3C4908800020FF
:10339000384908803A48007800285ED130480088D3
:1033A000B0F5966F14DD2E48008840F2145100E00D
:1033B0003DE088420CDA33480088401C31490880DF
:1033C00008460088032848DB00202D49087044E0A7
:1033D0002D480088401C2C49088008460088022897
:1033E0003BDB002008801E480088B0F5966F09DAA4
:1033F0001B480088642805DD24480088401E2349B6
:10340000088010E01648008840F2145188420ADD16
:103410001348008840F60201884204DA1B480088FD
:10342000401C1A49088000201649088015E00C4805
:103430000088642811DD0948008864280DDD00201B
:103440000A4908800120074908704FF4C8600B49F9
:1034500008804FF4AF600D49088070BD8A100020CD
:103460008C100020881000208E100020901000206A
:103470009A10002092100020961000209C1000202E
:103480009B10002094100020981000209E10002017
:103490007047000070B504460D4616462648005D8C
:1034A0004006000E2449085524B1012C0DD0022CF1
:1034B00020D115E04FF400612048FEF733FA1E4991
:1034C000095D08431C49085515E04FF480511B481D
:1034D000FEF728FA1849095D0843174908550AE01C
:1034E00004211748FEF71EFA1349095D08431249E3
:1034F000085500E000BF00BF0F48005D1149095D9D
:10350000884208D11048005D012804D1B04700204E
:103510000D4908550EE00848005D0A49095DC94398
:10352000C9B2884206D10848005D18B9A8470120F1
:103530000549085570BD0000CD0000200010014075
:1035400000140140CA000020D000002010B504463D
:10355000E1B2054800F0A1FE00BF4021024800F0A2
:10356000CFFD0028F9D010BD003801403EB504461B
:1035700010208DF8000004208DF8020020788DF8CE
:10358000030061788DF8041000218DF805108DF886
:1035900006108DF807108DF80810684600F03AF80C
:1035A0003EBD3EB5044610208DF8000003208DF886
:1035B000020020788DF8030061788DF80410002156
:1035C0008DF805108DF806108DF807108DF808108D
:1035D000684600F01FF83EBD3EB5044610208DF849
:1035E000000002208DF8020020788DF80300617839
:1035F0008DF80410A1788DF80510E1788DF806108B
:1036000021798DF8071000218DF80810684600F028
:1036100001F83EBD70B5044600252046FEF744FD86
:103620000546002D03DD0A21204600F055FE70BD41
:103630002DE9FE4305460C4616464FF000080027CC
:10364000C4F30728E7B213208DF8000003208DF89B
:1036500002008DF803508DF804808DF805708DF808
:10366000066000218DF807108DF808106846FFF7F6
:10367000D1FFBDE8FE833EB504460D4613208DF80C
:10368000000002208DF8020020788DF80300617898
:103690008DF80410A1788DF80510E1788DF80610EA
:1036A000E1788DF807108DF808506846FFF7B2FFF3
:1036B0003EBD3EB5044612208DF8000002208DF874
:1036C000020020788DF8030061788DF80410A1784D
:1036D0008DF80510E1788DF8061021798DF8071026
:1036E00000218DF808106846FFF794FF3EBD0000EA
:1036F00010B50446204600F00BF80449088008463F
:1037000001880020FDF7E8FE10BD0000C012002077
:1037100010B50446204600F067FF0148008810BD40
:10372000CC12002010B500F001F810BD0CB500203F
:10373000019000903348006840F4803031490860BF
:1037400000BF3048006800F4003000900198401C31
:103750000190009818B90198B0F5A06FF1D12948EF
:10376000006800F4003010B10120009001E000205A
:1037700000900098012843D12348006840F01000D1
:10378000214908600846006820F0030008600846E8
:10379000006840F0020008601A4840681949486013
:1037A0000846406848600846406840F480604860C9
:1037B0000846406820F47C1048600846406840F4A1
:1037C000E81048600846006840F08070086000BF5C
:1037D0000C48006800F000700028F9D009484068E3
:1037E00020F00300074948600846406840F00200A6
:1037F000486000BF0348406800F00C000828F9D179
:103800000CBD000000100240002002402DE9F04FE6
:103810008BB00646894600200A90824640F6FF7B20
:1038200009905846089000BF0024002500BF2FE0F3
:1038300036F81500584505DA36F81500642801DD1C
:1038400036F815B036F81500504506DD36F8150087
:10385000B0F5FA6F01DA36F815A039F815100898A6
:10386000814206DA39F81500C82802DD39F815005A
:10387000089039F815100998814207DD36F81500CF
:10388000B0F5FA6F02DA39F815000990681C85B2B4
:10389000B5F5967FCCDBDDE90821891A0AEB0B022E
:1038A00001FB02F0FCF7B7FECDE90401AAEB0B0126
:1038B000DDE908321A4401FB02F0FCF7ACFE0022FD
:1038C0007C4BCDE90001FCF7C0FDCDE90201DDE94B
:1038D0000423FCF72CFE0022764BCDE90601FCF711
:1038E000B4FD074688460022734B38464146FCF734
:1038F000ACFDCDE90601FCF7F8FE84B24FF0000AFA
:1039000040F6FF7B0020099058460890B4F5207FD0
:1039100002DC63200A90C8E0B4F5207F05DDB4F531
:103920002A7F02DC62200A90BFE0B4F52A7F05DD21
:10393000B4F5347F02DC61200A90B6E0B4F5347F40
:1039400006DD40F2EE20844202DC60200A90ACE00A
:1039500040F2EE20844205DDB4F5437F02DC5F20B7
:103960000A90A2E0B4F5437F06DD40F22A3084429B
:1039700002DC5E200A9098E040F22A30844205DDA5
:10398000B4F5527F02DC5D200A908EE0B4F5527FE0
:1039900005DDB4F5577F02DC5C200A9085E0B4F5C4
:1039A000577F05DDB4F55C7F02DC5B200A907CE08C
:1039B000B4F55C7F06DD40F28E30844202DC5A2092
:1039C0000A9072E040F28E30844205DDB4F56B7FE0
:1039D00002DC59200A9068E0B4F56B7F06DD40F206
:1039E000CA30844202DC58200A905EE040F2CA30BD
:1039F000844205DDB4F57A7F02DC57200A9054E05A
:103A0000B4F57A7F06DD40F20640844202DC56209F
:103A10000A904AE040F20640844206DD40F224402B
:103A2000844202DC55200A903FE040F22440844268
:103A300005DDB4F5876F02DC54200A9035E0B4F55B
:103A4000876F06DD40F24C40844202DC53200A902E
:103A50002BE040F24C40844205DDB4F58C6F02DC73
:103A600052200A9021E0B4F58C6F06DD40F27E40D2
:103A7000844202DC51200A9017E040F27E408442EA
:103A800006DD40F29240844202DC50200A900CE0B5
:103A900040F29240844205DDB4F5966F02DC4F207F
:103AA0000A9002E06FF063000A900A980BB0BDE83C
:103AB000F08F00000000F03F00408F4010B500F094
:103AC000A3FA10BD10B51348006840F00100114979
:103AD000086008464068104908400E49486008469A
:103AE00000680E4908400B4908600846006820F449
:103AF000802008600846406820F4FE0048604FF4CB
:103B00001F008860FFF70EFE4FF000600449086058
:103B100010BD0000001002400000FFF8FFFFF6FE9D
:103B200008ED00E010B50121880700F093F90128A5
:103B300003D10121800700F089F824480088401C47
:103B40002249088008460088022804DB00200880FB
:103B500001201F4908701F480088401C00B21D4901
:103B600008800846B0F900003C2190FBF1F201FB0F
:103B7000120010B90120184908701848007820B1C7
:103B800017480088401C16490880154800881421F1
:103B900090FBF1F201FB120050B91148008838B1D6
:103BA00001201049087000200D4908800B49087059
:103BB0000848B0F90000B0F57A7F05DB0020054920
:103BC000088001200849087010BD0000B6120020CE
:103BD000B0120020B8120020B31200205E000020B6
:103BE000BA120020B2120020B112002010B501213B
:103BF000044800F02FF918B10121024800F026F81E
:103C000010BD00000004004010B501210C4800F078
:103C100021F9012803D10121094800F017F80948CA
:103C20000088401C00B2074908800846B0F900002F
:103C3000052804DB0020088001200349087010BD1E
:103C4000000C0040BC120020B4120020CA430282C3
:103C5000704721B1028842F00102028004E002882C
:103C60004FF6FE731A4002807047000010B50446FC
:103C70006848844208D10121C014FFF761F800218F
:103C8000E014FFF75DF8C4E0B4F1804F08D10121E2
:103C90000846FFF735F800210120FFF731F8B8E0BA
:103CA0005D48844208D101210220FFF729F8002154
:103CB0000220FFF725F8ACE05848844208D10121E2
:103CC0000420FFF71DF800210420FFF719F8A0E0F9
:103CD0005348844208D101210820FFF711F8002140
:103CE0000820FFF70DF894E04E48844208D10121E6
:103CF0001020FFF705F800211020FFF701F888E0F9
:103D00004948844208D101212020FEF7F9FF002113
:103D10002020FEF7F5FF7CE04448844208D10121D1
:103D20004014FFF70DF800216014FFF709F870E068
:103D30003F48844209D10121C804FFF701F800215E
:103D40004FF40020FEF7FCFF63E03A48844209D1BB
:103D500001210805FEF7F4FF00214FF48010FEF763
:103D6000EFFF56E03448844209D101214805FEF7AF
:103D7000E7FF00214FF40010FEF7E2FF49E02F4873
:103D8000844208D101214020FEF7BAFF00214020E3
:103D9000FEF7B6FF3DE02A48844208D10121802089
:103DA000FEF7AEFF00218020FEF7AAFF31E0254894
:103DB000844208D101218015FEF7A2FF0021A01541
:103DC000FEF79EFF25E02048844209D10121080426
:103DD000FEF7B6FF00214FF48030FEF7B1FF18E088
:103DE0001A48844209D101214804FEF7A9FF0021A5
:103DF0004FF40030FEF7A4FF0BE01548844208D1D1
:103E000001218804FEF79CFF00214FF48020FEF77B
:103E100097FF10BD002C0140000400400008004046
:103E2000000C00400010004000140040003401402D
:103E3000004C014000500140005401400018004077
:103E4000001C0040002000400040014000440140B0
:103E50000048014030B50246002000230024158AA6
:103E600005EA0103958905EA010413B10CB10120AB
:103E700000E0002030BD1AB183890B43838102E04A
:103E800083898B438381704782884FF68F731A40F2
:103E9000828082880A438280704700000022028864
:103EA0001D4B98420ED01D4B98420BD0B0F1804F65
:103EB00008D01B4B984205D01A4B984202D01A4B9F
:103EC000984204D14FF68F731A404B881A43174B10
:103ED000984207D0164B984204D04FF6FF431A4041
:103EE000CB881A4302808B8883850B8803850A4B15
:103EF00098420BD0094B984208D00E4B984205D0FF
:103F00000D4B984202D00D4B984201D10B7A03869B
:103F10000123838270470000002C014000340140DF
:103F20000004004000080040000C00400010004069
:103F3000001400400040014000440140004801409E
:103F400010B50446012C14D1012208212C48FDF79C
:103F5000FFFC002210212A48FDF7FAFC0022210272
:103F60002848FDF7F5FC002261022648FDF7F0FC29
:103F700044E0022C14D1002208212148FDF7E8FC7E
:103F8000012210211E48FDF7E3FC0022E1011D483B
:103F9000FDF7DEFC002221021A48FDF7D9FC2DE0D6
:103FA000032C15D1002208211548FDF7D1FC002271
:103FB00010211348FDF7CCFC012211021148FDF736
:103FC000C7FC00224FF400710E48FDF7C1FC15E05C
:103FD000042C13D1002208210948FDF7B9FC002266
:103FE00010210748FDF7B4FC0022A1010548FDF7A8
:103FF000AFFC012251020348FDF7AAFC10BD0000EE
:10400000000C0140001001400448006820B1034842
:104010000068401E0149086070470000E41200205B
:1040200008B50020009040F22551204800F075F8B6
:1040300058B12520FDF7EAFF1C4800F029F9C0B26D
:1040400000909DF8000000F03BF90821174800F0AF
:1040500057F8012806D10821144800F02DF813481C
:1040600000F016F940F22771104800F056F8E0B160
:1040700040F227710D4800F028F82520FDF7C6FF13
:104080006846FEF7B7FF9DF80010084800F005F9F4
:104090000748FEF701FE40B10020064908700022E3
:1040A00040F22771014800F062F808BD0038014075
:1040B00070400020BE12002001F40072B2F5007FB3
:1040C00000D100BFCA430280704710B50022002310
:1040D00040F66A14A14200D100BF0A1201249440A4
:1040E000A3B2DC43048010BD21B1828942F40052A6
:1040F000828104E082894DF6FF731A408281704705
:1041000002460020B1F5007F00D100BF13880B40AC
:104110000BB1012000E00020704770B5024600247A
:1041200000230025002040F66A16B14200D100BFEE
:10413000C1F3421501F01F03012606FA03F3012D16
:1041400002D19689334006E0022D02D1168A33400F
:1041500001E0968A33400C12012606FA04F4168810
:10416000344013B10CB1012000E0002070BDF0B567
:104170000346002400260025002040F66A17B942B5
:1041800000D100BF1846C1F3421401F01F060127F9
:1041900007FA06F5012C01D10C3004E0022C01D104
:1041A000103000E014301AB107682F43076002E0B6
:1041B0000768AF430760F0BD2DE9F04786B00546BC
:1041C0000E460024A24600BFA1460027B08900B1D8
:1041D00000BF2F462C8A4CF6FF700440F088044341
:1041E0002C82AC894EF6F3100440B0883189084324
:1041F000718908430443AC81AC8A4FF6FF40044008
:10420000B0890443AC8201A8FEF7D0FD1F48874265
:1042100002D1DDF810A001E0DDF80CA0A88900F4BF
:10422000004040B10AEBCA0000EB0A1031684900B7
:10423000B0FBF1F807E00AEBCA0000EB0A103168A6
:104240008900B0FBF1F86420B8FBF0F0040120090C
:10425000642101FB1089A88900F4004040B132209C
:1042600000EBC900B0FBF1F000F00700044308E0E8
:10427000322000EB09106421B0FBF1F000F00F00D8
:1042800004432C8106B0BDE8F087000000380140EF
:1042900001468888C0F308007047C1F30802828095
:1042A00070474FF41651016000218180C180018167
:1042B0000C21418100218181704700BFFEE7000091
:1042C00031B50024012269460248FDF708FAC4B25C
:1042D000204638BD7C40002070B504460D460026BF
:1042E0002A4621460648FDF7FAF9C6B2642E04DADA
:1042F0000448007808B9FDF717FA304670BD000091
:1043000070400020BE120020014A024900F013B89C
:1043100049450008FC12002002E008C8121F08C12D
:10432000002AFAD170477047002001E001C1121F36
:10433000002AFBD170472DE9F04116460F4604468E
:10434000002503E03946B047641C6D1C2078002826
:10435000F8D12846BDE8F0812DE9F04705460E4E1C
:10436000002431464FF07E50FBF752FF81460B4848
:1043700001684846FBF752FF074631462846FBF7DF
:104380004DFF80463946FBF7F1FE044603480460C2
:104390002046BDE8F08700007B1F7B3EA010002078
:1043A0002DE9F04704460E461746DDE908C5002012
:1043B0000022002180468146C3F80090C5F8009095
:1043C00001205AE054F820A0A0F1010954F82990E6
:1043D000CA4515DD54F820A000F1010954F82990D0
:1043E000CA450DDDD3F80090B9F13C0F44DAD3F89B
:1043F00000A00AF10109C3F8009047F82A003BE049
:1044000054F820A0A0F1010954F82990CA4533DDE1
:1044100054F820A000F1010954F82990CA452BD185
:104420000246014600E0491CA6F10109894507DD65
:1044300054F821A001F1010954F82990CA45F2D09D
:1044400001F1010954F8299054F821A0D14512DA5C
:1044500002EB010909EBD97A4FEA6A08D3F8009018
:10446000B9F13C0F07DAD3F800A00AF10109C3F84B
:10447000009047F82A800846401CA6F101098145B2
:10448000A0DC01205AE054F820A0A0F1010954F862
:104490002990CA4515DA54F820A000F1010954F812
:1044A0002990CA450DDAD5F80090B9F13C0F44DAED
:1044B000D5F800A00AF10109C5F800904CF82A00CF
:1044C0003BE054F820A0A0F1010954F82990CA4516
:1044D00033DA54F820A000F1010954F82990CA45B4
:1044E0002BD10246014600E0491CA6F1010989458D
:1044F00007DD54F821A001F1010954F82990CA45BB
:10450000F2D001F1010954F8299054F821A0D145C5
:1045100012DD02EB010909EBD97A4FEA6A08D5F8F6
:104520000090B9F13C0F07DAD5F800A00AF10109B3
:10453000C5F800904CF82A800846401CA6F10109F5
:104540008145A0DCBDE8F08770B504460D46E0B2B9
:10455000FEF7FCFF204670BD70B586B004460D46E0
:1045600016460020012102231A46CDE90256CDE964
:104570000041049002490348FCF72EFB06B070BDD1
:104580003046000824460008FDF7FDFAFDF77FFBE2
:104590000CA0FFF7B9FE13E0FDF7C8FA032803D11A
:1045A000FEF732F9FDF7ACFDFDF780FEFDF7BEFA30
:1045B000012803D1FEF7C2FAFEF7D2F9FDF7A8FDF4
:1045C000EAE70000496E69742053797374656D20C1
:1045D000686173206265656E2066696E69736865DF
:1045E000642E0D0A00000000024602EB820359000F
:1045F000CB1701EB5373C3F3CF000749096881421E
:1046000006D206490968884202D20549088002E0BC
:104610000021034B19807047C8120020C4120020EB
:10462000CC12002087A37E3F87A3FEBF87A37E3FD7
:104630000000803F99A2FEBFE8487D3F5C4600082D
:104640000000002000130000B4090008204F0008FB
:1046500000130020503200002843000801314202BC
:104660002540067805323C29040136A3D0070256BE
:104670007844BBBC40580B8095BC40CDCCCCCC4CD6
:1046800070082D4BBC4066014A26105BCC01102DF2
:10469000DDBB4033015AB9084B95BB403B71BB2091
:1046A0005BE64D104B2ABB485A07081EE4BA409AF5
:1046B00099013BC1BA20115A9F104B7CBA585A5AE3
:1046C000085A38185A16284BF5B9104BD3B9204B55
:1046D000B2B9504B91B9684A70105BCC4F184A2F51
:1046E00018114A0F304CE6EEB8085ACE084BA8B85D
:1046F000504B8FB8C05A70185A50084B31B8404BC5
:1047000013B8504BF4B7604BD5B7804BB7B7385A96
:1047100099084A7B204C4C5DB7584A3F085B1922E8
:10472000385A04184BE7B6B03BCAB6384CB3ADB6EE
:10473000704A90084B667420114B58B6385A3B2883
:104740005A1F105A03204BE8B5304ACC084CE6B04B
:10475000B5604B95B5605A7A085A5F185A44284B91
:1047600029B5A85A0F104BF4B4604BDAB4304BC0E3
:10477000B4305AA6184A8C18115A73204A59204C42
:104780001940B4905A26285A0D084BF4B3184BDB45
:10479000B3284BC3B3384AAA08114B92B3285A79AD
:1047A000185A61084A49305B9931405A19405A02F7
:1047B000183BEAB2384C33D3B2B84BBBB2284AA448
:1047C000185BB38D104B76B2384A60285B6649306F
:1047D0004B32B2685A1C484A0610114BF0B1084BD4
:1047E000DAB1383BC4B1484B4CAE105B9998204AC3
:1047F00083084C806DB1404B58B1584A42305BCC75
:104800002D085A18185A03504BEFB0884ADA085B43
:10481000E6C5104BB1B0204B9DB0384B88B0C85A9C
:1048200074085A60184B4CB0804A39105B4C2520F4
:104830005A11484BFCAFA84BD5AF285BAFAF5059CE
:10484000185A62085A3C204B17AF384BF1AE105A39
:10485000CC085AA7084B82AEE04B5DAE384B38AE61
:10486000305A14184BF0AD084BCCAD184BA8AD70B6
:104870005A84105A61205A3E085A1B184BF8AC282B
:104880004BD5AC184BB3AC705A91185A6E105A4DA8
:10489000204B2BAC805A09104BE8AB205AC7084B71
:1048A000A6AB184B85AB605A64184B44AB385A23FF
:1048B000185A03084BE3AA184BC3AA704BA3AA18B3
:1048C0004B84AA385A65185A45085A26184B08AA24
:1048D000684BE9A9404BCAA9384BACA9205A8E08AD
:1048E0004B70A9285A52204B34A9485A16104BF93C
:1048F000A8285ADC085ABF085AA2084B85A8284B9A
:1049000068A8385A4B104B2FA8585A13084BF7A7D2
:10491000084BDBA7205BBFA7D059185A88104B6CF7
:10492000A7B05A51085A36085A1B20114AA7784B8B
:10493000E6A6184BCBA6104BB1A6205A96185A7C67
:10494000085A62185A48284B2FA6805A15104BFC5B
:10495000A5284BE2A5185AC9085AB0085A97204B07
:104960007EA5305A66185A4D105A35205A1C185ACE
:1049700004084BECA4084BD4A4204BBCA4305AA58B
:10498000184B8DA4985A75205A5E182D47A44033B1
:10499000015A30085A19085A02284BEBA3384BD455
:1049A000A3305ABE104BA7A3205A91184B7BA338B3
:1049B0005A67085A4F185A39284B23A3905A0E1891
:1049C0004BF8A2104BE3A2204BCDA2184BB8A2404B
:1049D0005AA3085A8E185A79284B64A2805A4F203D
:1049E0005A3B105A26285A12584BFEA1185AE90869
:1049F0005AD5085AC1084BADA1284B9AA1484B86FD
:104A0000A1605A72105A5F284B4BA1585A38305A3D
:104A100025085A12084BFFA0084BECA0384BD9A030
:104A2000304BC6A0405AB3185AA1105A8E205A7C57
:104A3000385A6A185A57084B45A0885A33105A21D9
:104A4000085A0F304BFC9F104BD89F284BB59F50F6
:104A50005A92104B6F9F705A4D184B2A9F385A0824
:104A6000084BE69E085AC4084BA29E284B809E58CD
:104A70004B5E9E485A3D184B1C9E504BFB9D104B65
:104A8000DA9D204BB99D184B999D385A78205A5879
:104A9000085A38085A18204BF89C305BD99C404A79
:104AA0009C205A9A184B7B9C905A5C105A3D205A75
:104AB0001E304BFF9B184BE19B505AC2085AA4086A
:104AC0005A86085A68284B4B9B384B2D9B585A10D6
:104AD000204BF29A184BD59A605AB8104B9B9A20EB
:104AE0005A7E184B629A385A46204B299A585A0DCA
:104AF000084BF199085BD599D04A99304B9E994063
:104B00005A82205A67184B4C99605A30305A151007
:104B10004BFA98204BE098184BC598384BAB98202F
:104B20004B9098505A76085A5C085A42205A2808E6
:104B30005A0E384BF597504BDC97284BC297185AB2
:104B4000A9185A90105A77204B5E97784B45974892
:104B50005A2C185A14304BFC96205AE3085ACB08AA
:104B60005AB3085A9B084B8396304B6C96404B5473
:104B700096505A3C205A25184B0E96805BF795F8B4
:104B80004A95104BC995205BB295584A95405A8476
:104B9000185A6E305A58205A41085A2B085A15088C
:104BA0004BFF94084BE994304BD494404BBE945047
:104BB0004BA894705A93285A7D205A68185A53105B
:104BC0005A3E105A29105A14304BFF93484BEA931F
:104BD000184BD693684BC293204BAD93385A992803
:104BE0005A84085A70085A5C085A48285A35085A94
:104BF00021405A0D504BFA92284BE692204BD3920B
:104C0000185AC0184BAC92304B9992885A86105A59
:104C100073105A60105A4D405A3B185A28185A15AA
:104C2000185A03504BF091205ADE085ACC084BBA60
:104C300091785AA8085A96185A84084B7291404B9A
:104C40006091504B4F91605A3D305A2C285A1A208F
:104C50005A0D185BF890E04A90305AD5105AC4109B
:104C60005AB3104BA290304B9290405A81185A7010
:104C7000185A60305A4F205A3F204B2E90785A1EB7
:104C8000085A0E304BFC8F085ADC084BBC8F305A48
:104C90009C084B7C8F505A5D085B3D8F484A8F6063
:104CA0004BFF8E284BE08E204BC18E184BA38E50AD
:104CB0005A84185A65185A47105A29105A0B104B23
:104CC000ED8D304BD08D604BB28D584B948D285A62
:104CD00077185A5A185A3C305A20205A03204BE66B
:104CE0008C505AC9084BAD8C305A90085A74085AE7
:104CF00058085A3C085A20085A04384BE98B505A35
:104D0000CE084BB28B684B978B784B7C8B285A61C3
:104D1000205A46184B2C8B485A10184BF68A184BC1
:104D2000DC8A305AC1105AA8105A8D105A74105A81
:104D300059104B408A404B268A505A0C184BF48924
:104D4000184BDA89185BC089504A89A05A8F205ABB
:104D500076085A5A205A3808F1051040067805009E
:104D6000FF008D4D8E638EB5F63E441BEC057B67D0
:104D70000F3FBBC076A67D35073F22E3BCBFD932CB
:104D80001CBFE363CEA932113DBF2F5CDC43EE9321
:104D90004EBFB805C2CE28AB57BFDACC7E0E07C9CE
:104DA0005CBFA5917894C8695ABF711F9B87403139
:104DB0004ABF58454B5F4197483FC8A0949597A577
:104DC000673F9C01496D0355753F18ECB0A2A915CA
:104DD0007D3F8F069C792313803F26608E05E4E19A
:104DE0007B3FCD1D74ABBC7B6D3FEDEA145DCAE328
:104DF0005BBF3D2E32AF525481BF666470F262B326
:104E00008FBFC668D2CE199F95BF046B41C8871A61
:104E100098BFB1DCE028679195BFE8FCB9EDB9987F
:104E200089BF42C8501AB1BA643FE965E5EA61F545
:104E3000973FE36EE6992CCEA83F6EAF61DE523EFF
:104E4000B33FFE63331D18BCB93F97CF3716161515
:104E5000BF3F367BDD26FC4CC13FD60B7F261CEACC
:104E60007AC1106920693069406950696069706968
:104E700080699069A069B069C069D069E069F00093
:104E8000811C26608E05E4E17B3F8F069C7923130D
:104E9000803F18ECB0A2A9157D3F9C01496D0355D8
:104EA000753FC8A0949597A5673F58454B5F4197BC
:104EB000483F711F9B8740314ABFA5917894C869CC
:104EC0005ABFDACC7E0E07C95CBFB805C2CE28AB8C
:104ED00057BF2F5CDC43EE934EBFE363CEA9321184
:104EE0003DBF22E3BCBFD9321CBFBBC076A67D3517
:104EF000073F441BEC057B670F3F8D4D8E638EB5DE
:104F0000F63EC3FF0F2D01020304047009060708D3
:104F10000902040608ACA24A0422291E410000002E
:0400000508000131BD
:00000001FF
